:100000000C9434000C943E000C943E000C943E0082
:100010000C943E000C943E000C943E000C943E0068
:100020000C943E000C943E000C943E000C943E0058
:100030000C943E000C943E000C943E000C943E0048
:100040000C943E000C943E000C943E000C943E0038
:100050000C943E000C943E000C943E000C943E0028
:100060000C943E000C943E0011241FBECFEFD8E04C
:10007000DEBFCDBF0E9440000C945C000C940000D9
:1000800084B18FEF84B98CEF8BB980E284B999B1D8
:1000900089B129B183FD0DC0892F847092FF03C0FF
:1000A00024FF07C080E085B999B189B129B183FFE8
:0C00B000F3CF80E285B9F8CFF894FFCFC1
:00000001FF
